:020000040800F2
:10000000F02E002049010008011D00084F120008D1
:10001000FF1C000811030008951E000800000000E6
:10002000000000000000000000000000051D0008A6
:100030001303000800000000031D0008071D00084E
:100040006301000863010008630100086301000800
:1000500063010008630100086301000863010008F0
:1000600063010008630100086301000863010008E0
:1000700063010008630100086301000863010008D0
:1000800063010008630100086301000863010008C0
:1000900063010008630100086301000863010008B0
:1000A00063010008630100086301000863010008A0
:1000B0006301000863010008630100086301000890
:1000C0006301000863010008630100086301000880
:1000D0006301000863010008630100086301000870
:1000E00015030008630100086301000863010008AC
:1000F0006301000863010008630100086301000850
:10010000630100086301000863010008630100083F
:10011000630100086301000863010008630100082F
:10012000630100086301000863010008630100081F
:10013000DFF810D000F0DAF800480047CD200008C2
:10014000AFF30080F02E00200648804706480047A5
:10015000FEE7FEE7FEE7FEE7FEE7FEE7FEE7FEE777
:10016000FEE7FEE7631D000831010008D2B201E09E
:1001700000F8012B491EFBD270470022F6E710B5AC
:1001800013460A4604461946FFF7F0FF204610BD05
:1001900030B480EA010202F0004530F0004221F064
:1001A000004013D090B1C30DD40DC2F31601C0F3BB
:1001B0001600E41A41F4000140F400027D3491423B
:1001C00001D3641C00E04900002C02DA30BC00209E
:1001D00070474FF400000023914201D3891A034372
:1001E00040084FEA4101F7D151B1914202D14FF09D
:1001F000004105E002D24FF0010101E06FF0010182
:1002000003EBC450284430BC00F038B8C10F80EA7A
:10021000E0700844CA079623002100F038B800F0C7
:10022000004220F00040C10DC0F3160040F4000071
:100230007F2901DA00207047962903DCC1F196017D
:10024000C84001E096398840002AF4D04042704707
:1002500030B50B46014600202022012409E021FA96
:1002600002F59D4205D303FA02F5491B04FA02F593
:100270002844151EA2F10102F1DC30BD0029A8BFFF
:100280007047401C490008BF20F00100704710B4BF
:10029000B0FA80FC00FA0CF050EA010404BF10BC74
:1002A000704749B1CCF1200421FA04F411FA0CF1A1
:1002B00018BF012121430843A3EB0C01CB1D4FEADA
:1002C00000614FEA102042BF002010BC704700EBD5
:1002D000C35010440029A4BF10BC7047401C490003
:1002E00008BF20F0010010BC70470000064C074D0D
:1002F00006E0E06840F0010394E8070098471034F6
:10030000AC42F6D3FFF718FFC4270008E427000823
:10031000FEE770474FF4805000F008B872B6FEE771
:10032000B0F5805F01D101F0EFBA7047044910B514
:100330000A68024202D00860FFF7F2FF10BD000019
:10034000140401402DE9F84FDFF8C8910024A9F109
:10035000040B23460F2709F1040AABF1040ED1E088
:100360000125A54006EA0502AA4276D1DFF8A8C118
:100370004E68A6EB0C0866452BD00DDC032E34D05E
:1003800005DC36B3012E19D0022E2FD11BE0112E21
:1003900016D0122E2AD119E0B8F5881F19D006DC24
:1003A000B8F5803F15D0B8F5801F1FD111E0B8F522
:1003B000001F0ED0B8F5041F18D10AE0CB6815E075
:1003C000CB681B1D12E0CB6808330FE0CB680C3301
:1003D0000CE08B682BB1012B4FF0080303D0456173
:1003E00004E0042302E0056100E00023FF2A01D8B5
:1003F000064601E000F104064FEA840501D9A5F1A3
:100400002005D6F8008007FA05FC28EA0C0803FA54
:1004100005F548EA0508C6F800804D68ED0070D57E
:100420003E4DAE6946F00106AE61AD6924F00306AB
:1004300005F0010500953A4D06EB050CDCF8085077
:10044000A607360F07FA06F825EA0805DFF8D48074
:10045000404503D14FF0000825E052E0DFF8C880A6
:10046000404502D14FF001081DE0DFF8C080404553
:1004700002D14FF0020816E0DFF8B480404502D107
:100480004FF003080FE0DFF8AC80404502D14FF099
:10049000040808E0DFF8A080404502D14FF00508CD
:1004A00001E04FF0060808FA06F848EA0508CCF81B
:1004B00008804D68D9F80060ED024D4601D516431D
:1004C00000E096432E604D68DAF80060AD025546B4
:1004D00001D5164300E096432E604D68DBF80060BE
:1004E000AD035D4601D5164300E096432E604D688E
:1004F000DEF80060ED03754601D5164300E0964333
:100500002E60641C0A681646E2407FF429AFBDE8FD
:10051000F88F000008040140000011100010024094
:100520000000014000080140000C014000100140A3
:100530000014014000180140001C0140014880687F
:10054000704700000000002070B5040025D094F82A
:100550003D00002520B984F83C50204600F078FA90
:10056000242084F83D002068016821F00101016029
:100570002068016841F4004101602068016821F4AD
:100580000041016000F0C2FB4D4A6168914201D810
:100590004C4900E04C49884201D2012070BD4B49D2
:1005A0002368B0FBF1F15E6826F03F060E435E6003
:1005B0006368934206D94FF4967359434FF47A73A4
:1005C000B1FBF3F12368491C1E6A26F03F06314354
:1005D00019626168914210D84900401EB0FBF1F2E7
:1005E000521CC2F30B02042A01D2042022E0B0FB09
:1005F000F1F0401CC0F30B001CE0A268F2B301EB69
:10060000C10303EB0116431EB3FBF6F35B1C43F47B
:1006100080431B0549D092B301EBC10202EB0111EB
:10062000401EB0FBF1F0401CC0F30B0040F48040D2
:1006300040F400402168CA694CF6FF739A431043A6
:10064000C861D4E9071001432068026822F0C002A3
:1006500011430160D4E9030101432068826848F234
:10066000FF339A4311438160D4E9050108432168AF
:10067000CA6822F0FF021043C86001E00EE016E0F5
:100680002068016841F0010101602564202084F8A0
:100690003D00256384F83E50002070BD01EB41060B
:1006A000431EB3FBF6F35B1CB3E70120C2E701EB8B
:1006B0004101401EB0FBF1F0401CC0F30B00B7E756
:1006C000A086010080841E0000093D0040420F000A
:1006D0002DE9FF4F83B00025DDE910799A46934656
:1006E0000446DDF848800095FFF728FF064694F899
:1006F0003D0020287CD119230122854920460096FF
:1007000000F0BCFE0028F5D194F83C0001286FD021
:10071000012084F83C0020680168C90703D1016802
:1007200041F0010101602068016821F4006101606D
:10073000222084F83D00402084F83E002564676252
:10074000A4F82A90608D20857248E062CDE9008689
:1007500053465A462046049900F092FD00287DD168
:10076000208DDFF8B491202768B1012814D0022829
:10077000206801681ED041F48061016020684169F1
:1007800080690090B6E02068416981690091016844
:1007900041F400710160ADE02068016821F48061DE
:1007A000016072B62068416981690091016841F475
:1007B00000710AE041F40061016072B6206841698D
:1007C00081690091016821F48061016062B691E065
:1007D000032868D801280CD0022843464FF00002B5
:1007E0004946204600960FD000F048FEB0BB10E00E
:1007F0008BE032464146204600F0E6FE70BB2068A2
:100800000069616A08706CE000F038FE30BB72B6B7
:1008100034E02068016821F48061016072B62068CC
:100820000069616A0870606A401C6062208D401E29
:100830002085608D401E6085384846F2A81100680A
:10084000B0FBF1F0C0EBC00000EB80000090401E58
:10085000009008D020684069C04300E029E04007CC
:100860000CD50098F3E744F8305F6773A5732069EF
:1008700040F02000206162B625731AE0206801680C
:1008800041F40071016020680069616A0870606A63
:10089000401C6062218D491E2185618D491E618544
:1008A00062B621681BE032464146204600F08CFECD
:1008B00018B1012007B0BDE8F08F20680069616AB7
:1008C0000870606A401C6062218D491E2185618D1F
:1008D000491E618521684A69D24352070AD40969D1
:1008E0000170606A401C6062208D401E2085608D12
:1008F000401E6085208D00287FF46AAF84F83D702B
:1009000084F83E5084F83C50D4E70220D2E700003F
:10091000020010000000FFFF040001000C00002096
:100920002DE9FF4F83B09A46DDE9119793460446BF
:10093000DDF84080FFF702FE054694F83D002028D0
:100940007FD11923012240492046009500F096FDF1
:10095000002876D194F83C00012872D0012084F858
:100960003C0020680168C90703D1016841F001011A
:1009700001602068016821F400610160212084F891
:100980003D00402084F83E0000262664C4F8248000
:10099000A4F82A90608D20852C48E062CDE900758E
:1009A00053465A462046049900F0E8FC70B930E0FE
:1009B0002A463946204600F03FFE58B1206C0428F4
:1009C00004D12068016841F400710160012007B082
:1009D000BDE8F08F606A216800780861606A401C99
:1009E0006062218D491E89B22185628D521E628509
:1009F00022685369DB435B070BD469B1007810614F
:100A0000606A401C6062208D401E2085608D401E03
:100A10006085208D0028CBD12A463946204600F03B
:100A200001FD0028CAD154F83D0B016841F4007162
:100A30000160202004F81E09E67766770020C6E7EB
:100A4000FFE70220C3E70000020010000000FFFFE4
:100A500010B586B0002100910191029103910068C8
:100A60001349884222D1134CA06940F00800A061CC
:100A7000A069694600F0080004904FF440700090AF
:100A800012200190032003900B48FFF75BFC0B48FA
:100A9000416841F0E06141F002014160E06940F4E9
:100AA0000010E061E06900F40010049006B010BD91
:100AB0000054004000100240000C014000000140C2
:100AC000024881680278114481607047000000206C
:100AD000074810B5016841F010010160032000F0E3
:100AE0006DF80F2000F006F800F024F8002010BD8B
:100AF0000020024070B50D4D04464FF47A712878FD
:100B0000B1FBF0F00A490968B1FBF0F000F0D4FA4B
:100B100048B9102C07D200222146501E00F02EF8B2
:100B200000206C6070BD012070BD0000000000203E
:100B30000C000020094808B5816941F0010181617C
:100B4000816901F001010091C16941F08051C161E9
:100B5000C06900F08050009008BD00000010024005
:100B6000002809DB00F01F020121914040098000AC
:100B700000F1E020C0F8001170470000F0B40E4B07
:100B80001B680C46C3F30223C3F10705042D00D9EB
:100B90000425191D072901D2002300E0DB1E0126D0
:100BA00006FA05F1491E214099409E40761E1640E6
:100BB0003143F0BC01F080B90CED00E0064900F0D3
:100BC000070208684FF6FF03184040EA0220034A74
:100BD00010430860704700000CED00E00000FA05CB
:100BE0002DE9F0470F46050061D0434E306800F014
:100BF0000700B84209D2306820F00700384330605F
:100C0000306800F00700B84251D128683B4C81079A
:100C100012D5400703D5606840F4E0606060287832
:100C2000000703D5606840F4605060606068A968A0
:100C300020F0F000084360602878C00728D068687A
:100C4000012810D02168022810D0890700292EDA47
:100C5000616821F0030101436160FFF76FFC80468A
:100C600041F288390DE021688903EFE78901EDE75A
:100C7000FFF764FCA0EB0801494502D90320BDE859
:100C8000F0876068696800F00C00B0EB810FEFD16D
:100C9000306800F00700B8420BD9306820F0070038
:100CA00038433060306800F00700B84201D00120BE
:100CB000E5E72878400705D56068E96820F4E0603A
:100CC000084360602878000706D56068296920F429
:100CD000605040EAC100606000F038F86168084A7E
:100CE000C1F30311515CC84006490860064800681A
:100CF000FFF700FF0020C2E7002002400010024082
:100D0000B42600080C000020040000200448054917
:100D100000684968044AC1F30221515CC840704729
:100D20000C00002000100240C426000804480549B9
:100D300000684968044AC1F3C221515CC840704749
:100D40000C00002000100240C42600080E4A516822
:100D50000E4801F00C03042B11D0082B0FD10C48C6
:100D6000C1F38343C903C05C0AD55168084AC1F383
:100D70004041921E515C054A5043B0FBF1F0704770
:100D800004494843704700000010024000127A00F6
:100D9000A426000800093D002DE9F84F040070D09A
:100DA0002078C04DC00749D06868C0F38100012891
:100DB00007D06868C0F38100022809D16868C003C1
:100DC00006D52868800339D560680028E7D035E06B
:100DD0006068B0F5803F0BD010B1B0F5A02F11D0F6
:100DE000286820F480302860286820F4802002E001
:100DF000286840F480302860606890B1FFF79EFB5F
:100E000006460AE0286840F480202860F0E700BF2A
:100E1000FFF794FB801B642873D828688003F7D5FC
:100E20000CE0FFF78BFB064605E000BFFFF786FBF3
:100E3000801B6428F0D828688003F7D420789A4E65
:100E400080074FF001094FF0000839D5686810F0AD
:100E50000C0F07D06868C0F38100022809D16868C8
:100E6000C00306D42868800714D52069012808D15A
:100E700010E02069B0B1C6F80090FFF75FFB0746AD
:100E800005E00AE1FFF75AFBC01B0228C4D8286816
:100E90008007F7D52868616920F0F80040EAC100B2
:100EA00028600DE0C6F80080FFF748FB074604E025
:100EB000FFF744FBC01B022823D828688007F7D41B
:100EC000207800072CD57948A169D9B1C0F80090E5
:100ED000FFF734FB074604E0FFF730FBC01B022896
:100EE0000FD8686A8007F7D571484FF4FA51006847
:100EF000B0FBF1F0009000BF0098411E0091FAD2C3
:100F00000EE080E0C0F80080FFF718FB074604E021
:100F1000FFF714FBC01B022875D8686A8007F7D456
:100F20002078400760D5E8690027C00008D4E86948
:100F300040F08050E861E869012700F0805000909F
:100F40005C480168C90513D40168834641F4807187
:100F50000160FFF7F3FA824606E000BFFFF7EEFA02
:100F6000A0EB0A0064284ED8DBF80000C005F5D5D8
:100F7000E06801280AD008B1052813D0286A20F0BB
:100F800001002862286A20F0040002E0286A40F08C
:100F900001002862E06841F2883B98B1FFF7CEFA81
:100FA00082460BE0286A40F004002862EEE700BFAA
:100FB000FFF7C4FAA0EB0A0159455AD8286A8007FE
:100FC000F6D50CE0FFF7BAFA824605E0FFF7B6FA6D
:100FD000A0EB0A0159454CD8286A8007F6D41FB106
:100FE000E86920F08050E861E06988B36968C1F37E
:100FF0008101022944D00228C6F8608004D0FFF79E
:101000009DFA044638E034E0FFF798FA074604E01A
:10101000FFF794FAC01B02282BD828688001F7D468
:10102000206AB0F5803F05D16868A16820F40030DF
:1010300008436860D4E908010843696821F4741121
:1010400008436860C6F86090FFF778FA044606E047
:1010500025E000BFFFF772FA001B022809D82868B4
:101060008001F7D51BE000BFFFF768FA001B0228DC
:1010700002D90320BDE8F88F28688001F4D40EE07F
:101080000128F7D06868226A00F48031914204D1C7
:10109000616A00F47010884201D00120EAE7002064
:1010A000E8E7000000100240000042428004424293
:1010B0000C0000200070004010B5401EB0F1807F91
:1010C00001D3012010BD4FF0E02460610F216017B3
:1010D00000F0F2FE0020A06107202061002010BD7A
:1010E00070B5040004D094F84100002510B106E06A
:1010F000012070BD84F84050204600F023F82420E1
:1011000084F841002068C16821F40051C160204684
:1011100000F028FE2068016921F4904101612068F7
:10112000416921F02A0141612068C16841F4005100
:10113000C1606564202084F8410084F84200656342
:10114000002070BD30B585B0002400940194029455
:10115000039400681449884224D11448816941F4F9
:1011600080418161816901F480410491816941F08C
:101170000401816180690E4D00F0040004904FF479
:1011800000700090022001900320039069462846D9
:10119000FFF7D8F82815CDE90004694628460294DF
:1011A000FFF7D0F805B030BD003801400010024014
:1011B000000801402DE9F843044690F841001F461D
:1011C00016460D46202802D00220BDE8F8837DB1E6
:1011D00076B100206064212084F84100FFF7AEF969
:1011E000A6848046E684A068B0F5805F02D003E064
:1011F0000120EAE7206910B12E4600250EE0002606
:101200000CE08021204600F009FEA0B9AEB116F82E
:10121000010B21684860E08C401EE084E08C43466E
:101220004FF0000200970028EBD14FF0400120461C
:1012300000F0F4FD30B10320C7E735F8020BC0F32E
:101240000800E6E7202084F841000020BDE7FEE723
:1012500001684A69D24352050FD46FF480624A6133
:10126000002140F8301F202242738173026942F04E
:1012700004020261017301207047002070470000E2
:101280002DE9F84F0446006889460B9D0168984691
:10129000174641F4806101602068016841F4807163
:1012A000016000954FF0011B0022594620460A9B21
:1012B00000F0E4F84FF4007A40B120680068C005FF
:1012C00001D5C4F840A00320BDE8F88F216809F0DB
:1012D000FE0008612B46284920460A9A00F016F9BC
:1012E000F0BB20684169806900902A4620460A992F
:1012F00000F0A2F940B1206C04283AD120680168BE
:1013000041F40071016034E0FEB2B8F1010F09D080
:101310002168380A08612A4620460A9900F08CF9AB
:101320000028E8D1206806612A4620460A9900F084
:1013300083F90028DFD12068016841F480710160E1
:1013400000950022594620460A9B00F097F8002895
:10135000B3D1216809F0FF0040F00100086100E00E
:1013600007E02B46044920460A9A00F0CFF80028EF
:10137000AAD00120A8E70000020001002DE9F843EF
:10138000044600680D46DDE9089701689846164650
:1013900041F4807101604B4600224FF0011120465C
:1013A000009700F06BF848B120680068C00502D5CE
:1013B0004FF4007020640320BDE8F883216805F035
:1013C000FE0008613B464A461549204600F09EF85B
:1013D00088B920684169806900903A4649462046AC
:1013E00000F02AF948B1206C042804D12068016873
:1013F00041F4007101600120DEE7F5B2B8F1010FA0
:1014000009D02168300A08613A464946204600F072
:1014100013F90028E7D1206805610020CCE700001F
:101420000200010070B516460D4604461EE0204637
:10143000FFF70EFF08B1012070BD681C16D0FFF742
:101440007DF8801BA84200D885B920684069C04358
:1014500040070BD5002044F8300F20216173A073A2
:10146000216941F0200121612073E4E7206840698F
:10147000C0434007DBD4002070BD00002DE9F047D9
:10148000984617460D460446C1F30746DDF82090FE
:101490002AE000BFB8F1FF3F26D0FFF74FF8A0EBDE
:1014A0000901414502D8B8F1000F1DD12068012E75
:1014B00016D0806925EA00000004000C12D000203C
:1014C000B84211D1002044F8300F20216173A0737D
:1014D000216941F02001216120730120BDE8F087DE
:1014E0004069E7E70120EBE72068012E0AD0806918
:1014F00025EA00000004000C06D00020B842C9D044
:101500000020EBE74069F3E70120F7E72DE9F0471A
:10151000984616460D4604464FF000094FF0200A43
:10152000C1F3074723E020684069C043400515D454
:101530002068016841F40071016021686FF48060E7
:101540004861C4F8309084F83DA084F83E90216C46
:1015500041F00401216484F83C9021E0701C06D025
:10156000FEF7ECFFA0EB0800B04203D816B1012F44
:101570001FD021E02068012F15D0806925EA0000E6
:101580000004000C18D000BF44F8309F84F80DA070
:1015900084F80E90216941F02001216184F80C90BB
:1015A0000120BDE8F087406925EA00000004000C36
:1015B000EAD12068406901E02068806925EA0000DE
:1015C0000004000CAFD1ECE72DE9F0410025904676
:1015D0000E460446202728E04069C043C0060CD4CC
:1015E00054F8301B6FF01000486144F810596777C9
:1015F000A577206A2062257714E0FEF79FFFA0EB15
:101600000800B04200D886B920684069C04340064F
:101610000BD544F8305F6773A573206940F0200054
:10162000206125730120BDE8F08120684169C9432C
:101630004906D1D40020F6E770B516460D4604469B
:101640001EE02046FFF704FE08B1012070BD681CB3
:1016500016D0FEF773FF801BA84200D885B920681A
:101660004069C04300060BD5002044F8300F20210C
:101670006173A073216941F0200121612073E4E7C7
:1016800020684069C0430006DBD4002070BD000024
:1016900000B585B00020029003901A48816941F09E
:1016A00010018161816901F010010491816941F0AB
:1016B00020018161816901F020010491816941F07B
:1016C00004018161816901F004010491816941F0A3
:1016D000080181618069694600F0080004904FF4B8
:1016E00080500090084801900848FEF72BFE002229
:1016F00011462820FFF742FA2820FFF731FA05B0FB
:1017000000BD000000100240000031100008014040
:101710000D4810B50B4901600C49416000214FF4A0
:1017200080428160C0E9031241618161C16101624F
:10173000FEF70AFF002803D0BDE81040FEF7EEBD1B
:1017400010BD00000054004030000020A0860100C1
:101750000C4810B50A4901604FF4E13141600021A5
:1017600081600C22C160C0E904128161C161FFF790
:10177000B7FC002803D0BDE81040FEF7CFBD10BD78
:10178000003801408400002038B5112801D2112012
:1017900002E0202800D92020C0F12000C4B2694610
:1017A000082000F08DF901280DD19DF8000004F00B
:1017B0000F0120F00F0001438DF80010082000F009
:1017C0006DFA012800D0002038BD10B500F01F01CF
:1017D000052000F063FA012800D0002010BD10B5EC
:1017E00000F01F01062000F059FA012800D0002067
:1017F00010BD00F001020421082000F065BA38B5E0
:1018000004466946082000F05BF901280ED19DF8D6
:10181000000004F0070120F0070040EA41118DF8B4
:101820000010082000F03AFA012800D0002038BD4E
:1018300010B500F01F01042000F030FA012800D09C
:10184000002010BD01488069704700001000002092
:1018500001484069704700001000002038B5294C4D
:10186000606000F041F9012846D16946002000F08F
:1018700027F9012840D10020FFF7DAFF01283BD1EA
:101880000020FFF7A2FF012836D10020FFF7A7FFB5
:10189000012831D10020FFF7B2FF01282CD1002010
:1018A000FFF7A7FF012827D11120FFF76DFF0128BF
:1018B00022D1032000F03AF901281DD100F04EF9A1
:1018C000012819D100F07BF9012815D1032000F07F
:1018D0005EF9012810D1002000F086F801280BD114
:1018E00000F08BF8012807D100F016F9012803D188
:1018F00000F017F9012801D0002038BD0020E07069
:10190000012038BD100000202DE9F84F684600F096
:10191000C3F80128FAD19DF80000314D314C000682
:101920004CF250394FF4C86A4FF0010B4FF4167760
:1019300005F5166828D50026A068A26805EB800189
:1019400008EB820000F062F80128F5D12078002829
:10195000A06805D055F82010494507D2002004E0C2
:1019600055F82000504501D958462070A068401C09
:10197000B0FBF7F107FB1100A0602069401C20615B
:10198000761CF6B2112ED7D39DF80000400624D560
:101990004646A06805EB8001A06806EB800000F0D9
:1019A00035F80128F5D120780028A06805D055F831
:1019B0002010494507D2002004E055F8200050458A
:1019C00001D958462070A068401CB0FBF7F107FB16
:1019D0001100A0602069401C2061BDE8F88F000064
:1019E0002C1800201000002010B501460C2000F03B
:1019F00055F9012800D0002010BD10B501460D207A
:101A000000F04CF9012800D0002010BD30B505468B
:101A100085B000200C46286008600122062103A83A
:101A20008DE807001B4813460722AE214068FEF7E9
:101A30004FFE10B1002005B030BD9DF80C002968A4
:101A400001EB004028609DF80D00296801EB0020A3
:101A500028609DF80E002968084428609DF80F0052
:101A6000216801EB004020609DF81000216801EB27
:101A7000002020609DF8110021680844206028683B
:101A8000C0F3110028602068C0F31100206001201D
:101A9000D1E700001000002038B504460020207077
:101AA000694600F00DF8012801D0002038BD9DF8EE
:101AB0000010207801F0E10108432070012038BDBA
:101AC0000EB50122CDE900121346029202460548E6
:101AD000AE214068FEF7FCFD08B100200EBD0120DC
:101AE0000EBD00001000002008B5FF208DF800009A
:101AF0004021092000F0D2F8012805D169460920CB
:101B0000FFF7DEFF012801D0002008BD9DF800008E
:101B10004006F3D4012008BD02460721022000F050
:101B2000D3B802460621022000F0CEB838B50446EC
:101B300069460920FFF7C4FF01280DD19DF8000078
:101B400004F0070120F0070001438DF80010092080
:101B500000F0A4F8012800D0002038BD38B50446B4
:101B600069460A20FFF7ACFF01280ED19DF800005E
:101B700004F0030120F0030040EA41118DF8001049
:101B80000A2000F08BF8012800D0002038BD38B5BD
:101B9000044669460A20FFF793FF01280DD19DF8FE
:101BA000000004F0030120F0030001438DF8001051
:101BB0000A2000F073F8012800D0002038BD38B5A5
:101BC000044669460A20FFF77BFF01280ED19DF8E5
:101BD000000004F0070120F0070040EA81018DF8C1
:101BE00000100A2000F05AF8012800D0002038BD6B
:101BF0007FB5284C0025E17871B102204FF4FA72CC
:101C0000012919D0022926D0032904D12178D1B184
:101C10002169642915D87FBDA561656120780028F8
:101C2000F9D02561A068E0602420FFF7DDFE2420C4
:101C3000FFF7E3FE012004E0217821B12169914200
:101C4000E9D9E0707FBD0020FFF7CEFE0120FFF74D
:101C5000D4FEE5707FBD20780028F4D00D4EB61C70
:101C600006F11603711E181F8DE84B00E0680A4943
:101C700083B2A1F5166000F075FAE0684FF41671B2
:101C80006430B0FBF1F201FB1200E060256103203B
:101C9000D7E70000100000208C21002003B583B09E
:101CA000012104AACDE900210246064802910B4613
:101CB000AE214068FEF734FE10B1002005B000BD33
:101CC0000120FBE710000020F8B50C46154606463B
:101CD0006946FFF7F5FE01280FD19DF80010A040DE
:101CE000814305F00100A0400843C1B28DF8001007
:101CF0003046FFF7D3FF012800D00020F8BDFEE7F3
:101D0000FEE770477047FEF7DBBE30B58FB0282185
:101D10006846FEF732FA14210AA8FEF72EFA0121CE
:101D20000804CDE900100024029402250491CDE9B5
:101D30000750C00009906846FFF72EF808B172B648
:101D4000FEE70F200A90CDE90B540D9401210AA85B
:101D50000E94FEF745FF002801D072B6FEE70FB0E3
:101D600030BD704770B5044600680169E26821F42F
:101D70004051114301612169A0680843616908432A
:101D80002168CA6841F20C639A430243CA60206822
:101D90004169A26921F44071114341611E492068E3
:101DA000884202D1FEF7C2FF01E0FEF7AFFF00EB71
:101DB000C00101EB0012606864218000B2FBF0F307
:101DC000B3FBF1F36FF018067343B2FBF0F5B2FB0F
:101DD000F0F605EB8305322303EB0515B5FBF1F5B2
:101DE000B6FBF1F605F0F00505EB0615B2FBF0F6D3
:101DF000B2FBF0F0B0FBF1F06FF01802504306EBCD
:101E0000800003EB0010B0FBF1F0216800F00F0040
:101E10002844886070BD0000003801402DE9F04181
:101E2000984617460E460446069D27E0681C25D0B6
:101E30002DB1FEF783FBA0EB0800A8421ED9206855
:101E40000C3050E8001F21F4D07140E80012002A45
:101E5000F5D12068143050E8001F21F0010140E85E
:101E60000012002AF5D1202084F8410084F84200B5
:101E7000002084F840000320BDE8F081206800685D
:101E800036EA000004D00020B842CFD00020F3E7AB
:101E90000120F9E7FEE700000FB4054B10B503A9D8
:101EA000044A029800F028F810BC5DF814FB00000A
:101EB000B12000082C0000200907090E002804DBCF
:101EC00000F1E02080F80014704700F00F0000F1EE
:101ED000E02080F8141D704702E008C8121F08C1F6
:101EE000002AFAD170477047002001E001C1121F9B
:101EF000002AFBD1704700002DE9FF4F8BB09A46B6
:101F00000F460546002606E025280BD052460D99BF
:101F100090476D1C761C28780028F5D10FB030460C
:101F2000BDE8F08F0024A0460122604900E0044390
:101F300015F8013F203B02FA03F00842F7D1287858
:101F40002E2817D115F8010F44F004042A280ED0CA
:101F50006FF02F022878A0F1300109290AD808EB88
:101F6000880102EB410100EB01086D1CF2E757F814
:101F7000048B6D1C287869283ED006DC0028CDD063
:101F800063280BD0642804D136E0732810D075285C
:101F90004BD052460D999047761C85E017F8040BFC
:101FA0008DF8000000208DF80100E946012003E0D3
:101FB00057F8049B4FF0FF3061074FF0000401D445
:101FC0000AE0641C44450DDA8442FADB19F8041077
:101FD0000029F6D106E0641C8442FCDB19F80410E9
:101FE0000029F8D1264404E019F8010B52460D9956
:101FF0009047641EF8D257E001CF4FF00A0B00283B
:1020000002DA40422D2102E0210504D52B218DF872
:102010002410012103E0E10705D02021F7E70DF1AD
:10202000200908910CE00021F9E701CF4FF00A0BDD
:10203000F9E75946FEF70CF901F1300209F8012DD4
:102040000028F6D1ADEB090000F1200B600701D4A8
:102050004FF00108D84502DDA8EB0B0000E000209E
:102060008046002406E009A85246005D0D9990477D
:10207000641C761C08988442F5DB04E0302052464C
:102080000D999047761CB8F10001A8F10108F5DC24
:1020900005E019F8010B52460D999047761CBBF1EB
:1020A0000001ABF1010BF4DC6D1C34E709280100E1
:1020B00038B504468DF80000022301226946024823
:1020C000FFF778F8204638BD84000020FEF700FDB9
:1020D000FFF71BFEFFF7DCFAFFF73AFBFFF718FBF1
:1020E0000A48FFF7BBFB00BFFFF782FD1B2211462A
:1020F00007A0FFF7D1FEFFF7ABFB0446FFF7A2FBFB
:102100000146224605A0FFF7C7FEEDE7300000209C
:1021100025635B324A25635B480A000048523A2037
:1021200025640A0D53704F323A2025640A000000DE
:102130002DE9F8418046DDE90706009017460C4678
:10214000099D404600F00AFA33463A462146404689
:1021500000F03AFA2068A84200DB28462060BDE87B
:10216000F88100002DE9FF4FBFB01646DDE94C5461
:10217000002211464FF41673429809E03F9F57F82A
:102180002070401C3A44B0FBF3F703FB1700491CD6
:10219000B142F3DBB2FBF6F70022EA4942980DE0C8
:1021A0003F9B53F82030401CDB1B41F822304FF49A
:1021B0001673B0FBF3FC03FB1C00521CB242EFDBB6
:1021C00000204FF4F87C00BF01EB800251F8203072
:1021D0005768E3463B44D2E902723A441A44D317A3
:1021E00002EB9372921041F82020401C5845EBDB23
:1021F000D54A00204FF4F77301EB800751F820C057
:102200007F688946A7EB0C0742F82070401C984273
:10221000F2DD002002EB800752F820107F689A461A
:10222000394401EBD171491042F82010401C50454F
:10223000F0DBC64F0020964600230146421D08E011
:10224000A1EB00085EF821C037F81880491C0CFB90
:1022500018339142F4DB40F27A4193FBF1F14EF8EE
:102260002010401C7346B0F5F47FE5DD00221046D7
:102270004FEA0A0753F82010002900DC4942401CAD
:102280000A445045F6DD40F2EF1392FBF3F00822CA
:10229000CDE9000205210291AB4A3CA917A8FFF73E
:1022A00047FF3C9900220DF15C0802291FDB012049
:1022B000434609E003EB800C53F820705CF804CC33
:1022C000401CA7EB0C073A448842F3DB491E92FB03
:1022D000F1F0FDF79BFF01469D48FDF759FFFDF723
:1022E0009EFF4E9908604F990120087005E04E99B5
:1022F000984808604F9800210170002041463C9F9B
:1023000007E000BF51F8202026AB921C43F82020A4
:10231000401CB842F6DB0021DFF83CE24FF41672B5
:10232000C84642980FE03F9B53F8203048F82130D0
:10233000409B53F820C0401CB0FBF2F34EF821C084
:1023400002FB1300491CB142EDDB0022134627E0DB
:1023500026A84FF0010950F823004FF08076411D68
:1023600051451CDCA0F1050CBCF1000F17DD401F2E
:102370000FE000BF58F820C0B44509DAB9F1000FEA
:1023800001D04FF0000966460DF1200C4CF82300F7
:10239000401C8842EEDBB9F1000F00D1521C5B1CDF
:1023A000BB42D5DB022A03DA6A4828600020C4E079
:1023B0000020D9464FEA0E0C08EB800158F8203077
:1023C0004E68E2463344D1E9026131441944CB17E7
:1023D00001EB9371891048F820100CEB80035CF836
:1023E00020605F683E44D3E902733B443344DE1708
:1023F00003EB96739B104CF82030401C4845DBDB08
:1024000000200DF1D40B3D9000214BF82010401C12
:102410000528F9DB00204FF4FA7105E008AB53F80A
:1024200020308B42C0DC401C9042F7DB0023A2F13D
:10243000010960E008A800EB830650F823E0766805
:102440004FF07F42A6EB0E0011463A900A2851DD6C
:102450007046D4460DE000BF58F820708F4201DD71
:10246000394606905CF82070974201DD3A460590A7
:10247000401C8642F0DC5AF826C05AF82E003E90E6
:10248000ACEB0000DDF814C0ACEB0E0778433A9FCC
:1024900090FBF7F73E9807EB000C059F5AF8277062
:1024A000A7EB0C07039758F8260058F82E60DDF8C4
:1024B00018C0801BACEB0E0778433A9F90FBF7F0F7
:1024C0003044059E039F58F826604F43301A50430E
:1024D000F911C01100280DDD3D9A052A0ADA49B12B
:1024E0006422514391FBF0F23D984BF820203D9837
:1024F000401C3D905B1C4B459CDB58463D9900F0D1
:1025000099F83D9800EBD070401001280ADD0BEBE4
:1025100080025BF8200052F8042C104400EBD070CD
:10252000401001E05BF82000C11EB529BFF43CAFAC
:1025300006493E31085C28600120207043B0BDE8A8
:10254000F08F00008C080020CC000020CC26000872
:102550000080BB4519FCFFFF5C1000202DE9F04313
:10256000814600240120DDF81C805E1E0C6026E000
:1025700052F82070474521DD02EB800454F8044CEA
:10258000A7421BDD012500E06D1C44199C4203DAC3
:1025900052F824C06745F7D0054452F82550AF42A1
:1025A0000ADD0D680F2D07DA4FEA850C6D1C0D60F2
:1025B00049F80C00601C02E0204600E0401CB042DC
:1025C000D6DBBDE8F08300002DE9F0431E4613463C
:1025D0000C460A6805460146184600F045F84FF0DB
:1025E000FF3840461CE00A46411CC6F10009216044
:1025F00013E000BF55F82170431C19D055F8203066
:10260000FB1AB34201DC4B4506DA23684FEA830C20
:102610005B1C236045F80C70491C9142EADB401CAE
:1026200021688142DFDC2846BDE8F04300F002B8B3
:102630004346E5E730B5012312E000BF50F82340E0
:102640001A4602E040F82250521E002A05DD00EB37
:10265000820555F8045CA542F4DC40F822405B1C7E
:102660008B42EBDB30BD0000F0B5012416E000BF6B
:1026700051F82450234602E041F823605B1E002BF2
:1026800009DD01EB830650F8257056F8046C50F80C
:1026900026C06745F0DC41F82350641C9442E7DB18
:1026A000F0BD010202030405060708090A0B0C0D20
:1026B0000E0F1010000000000000000001020304D3
:1026C00006070809000000000102030429001401A4
:1026D00000021401290000000000000000000000BA
:1026E00000000000000000000000000000000000EA
:1026F00000000000000000000000000000000000DA
:10270000000000000000000000005F5F5F6060608C
:102710006161616161626262626263636363636398
:10272000636364646464646464646464646464646B
:102730006464646464646363636363636363626265
:102740006262626261616161606060605F5F5F5E82
:102750005E5E5D5D5D5C5C5C5B5B5A5A59595958C5
:10276000585757565655555454535252515150502C
:102770004F4E4E4D4C4C4B4A4A49484847464545BA
:102780004443424241403F3E3E3D3C3B3A3938386B
:1027900037363534333231302F2E2D2C2B2A292841
:1027A000272625242322211F1E1D1C1B1A1917163C
:1027B00015141311100F0E0C0B0A0907060503025E
:1027C00001000000E42700080000002030000000A5
:1027D000D81E00081428000830000020C02E000079
:1027E000E81E0008010000001000000000000000CA
:1027F0000024F400000000000000000000000000C1
:1028000000000000000000000000000000000000C8
:0428100000000000C4
:0400000508000131BD
:00000001FF
